:020000040800F2
:10000000B056002085020008893C0008213600080F
:10001000813B000891070008DD4B0008000000004C
:10002000000000000000000000000000C501000802
:10003000D30C00080000000021020008AD420008B7
:100040009F0200089F0200089F0200089F0200080C
:100050009F0200089F0200089F0200089F020008FC
:100060009F0200089F0200089F0200089F020008EC
:100070009F0200089F0200089F020008990B0008D9
:10008000A90B00089F0200089F0200089F020008B9
:10009000950700089F0200089F0200089F020008C1
:1000A0009F0200089F0200089F0200089F020008AC
:1000B0009F0200089F0200089F0200089F0200089C
:1000C0009F0200089F0200089F0200089F0200088C
:1000D0009F020008414B0008614B0008714B00086B
:1000E0009F0200089F0200089F0200089F0200086C
:1000F0009F0200089F0200089F0200089F0200085C
:100100009F0200089F0200089F0200089F0200084B
:100110008D4400089F020008954300089F020008D4
:100120009F0200089F020008B90B00089F02000808
:100130009F0200089F0200089F0200089F0200081B
:10014000A50700089F0200089F0200089F02000800
:100150009F0200089F0200089F0200089F020008FB
:100160009F0200089F0200089F0200089F020008EB
:100170009F0200089F0200089F0200080000000084
:100180009F0200089F0200089F0200089F020008CB
:100190009F0200089F0200089F0200089F020008BB
:1001A00000000000000000009F020008DFF810D0EF
:1001B00000F0DCFA0048004739500008AFF3008037
:1001C000B05600202C4B19680868B0E8F04F80F357
:1001D0000988BFF36F8F4FF0000080F311887047DC
:1001E0000000000008480068006880F308884FF0AD
:1001F000000080F3148862B661B6BFF34F8FBFF37F
:100200006F8F00DF00BF00BF08ED00E0DFF80C00DB
:10021000016841F470010160704700BF88ED00E0A3
:10022000EFF30980BFF36F8F134B1A681EF0100FA6
:1002300008BF20ED108A20E9F04F106009B44FF09C
:10024000500080F31188BFF34F8FBFF36F8F06F01C
:10025000C7F84FF0000080F3118809BC19680868DE
:10026000B0E8F04F1EF0100F08BFB0EC108A80F31A
:100270000988BFF36F8F704734000020EFF30580CB
:10028000704700000648804706480047FEE7FEE743
:10029000FEE7FEE7FEE7FEE7FEE7FEE7FEE7FEE736
:1002A00081430008AD0100082DE9F05F05460020FC
:1002B00092469B4688460646814640241BE02846D7
:1002C00041464746224600F09BF953465A46C01A1B
:1002D000914110D311461846224600F082F92D1A9A
:1002E00067EB01084F4622460120002100F079F912
:1002F00017EB00094E41201EA4F10104DFDC484643
:1003000031462A464346BDE8F09F40EA01039B0779
:1003100003D009E008C9121F08C0042AFAD203E07A
:1003200011F8013B00F8013B521EF9D27047D2B2DE
:1003300001E000F8012B491EFBD270470022F6E7CE
:1003400010B513460A4604461946FFF7F0FF20464B
:1003500010BD2DE9FE4F804681EA0300C00F0C4618
:10036000009021F0004123F00045B8EB0200A941C4
:1003700005D24046214690461C460B46024623F0D5
:100380000040104347D0270DC7F30A00C3F30A51BA
:100390000290401A019040286BDAC3F3130040F436
:1003A000801B0098924620B10023D2EB030A63EB36
:1003B0000B0B01985946C0F14002504600F011F96C
:1003C00006460D4650465946019A00F029F910EBB1
:1003D00008006141002487EA115284EAE7731A4356
:1003E00040D0009A62B3019A012A4FEA075215DC05
:1003F000001B61EB02014FF0004202EA0752CDE917
:100400000042001C41F5801132462B4600F060F995
:1004100003B0BDE8F08F40462146F9E7001B61EBD1
:100420000201001C41F5801300185B412018A2F561
:10043000001747EB030140EAD570B6196D4111E092
:100440006D084FEA360645EAC0754FEA0752001BB1
:1004500061EB0201001C41F5801149084FEA3000B0
:100460000019514132462B4603B0BDE8F04F00F071
:1004700020B90098012240000023D0EB020263EB78
:10048000E073009821464FEAE074B8EB000061EB9E
:100490000401E9E783F000435BE781F0004158E79E
:1004A0002DE9FE4F81EA030404F0004421F00041ED
:1004B00000944FF0000B23F0004350EA01045ED09B
:1004C00052EA03045BD0C3F30A54C1F30A552C4427
:1004D000A4F2F3340194A0FB0254C1F3130141F4DC
:1004E0008011C3F3130343F4801301FB024400FBA8
:1004F000034E840A970A44EA815447EA8357A4FBCF
:10050000076802958D0A05FB07854FEA932C04FBCB
:100510000C542705029D4FEA065847EA1637B5EBFB
:1005200008056EEB070C870E920E47EA811742EA28
:100530008312A7FB0201B6EB0B0164EB00042B0D49
:1005400043EA0C335E1844EB1C50DA465146E7FB95
:100550000201C5F313044FEA0B3343EA14534FEA85
:100560000432019C43EA0603A4F10C040294009CAB
:10057000CDE900B400F0ACF803B0BDE8F08F002086
:100580000146F9E700F0004230F000400AD0C10D0A
:1005900001F56071C0F3160042EA0151C20840073C
:1005A0001143704700200146704701F0004330B40A
:1005B00021F0004150EA010206D00A0DA2F5607256
:1005C000C1F31301002A02DC30BC00207047440F45
:1005D00044EAC104C100E01830BC00EBC25000F096
:1005E00031B8202A04DB203A00FA02F100207047DB
:1005F0009140C2F1200320FA03F319439040704761
:10060000202A04DB203A21FA02F00021704721FA67
:1006100002F3D040C2F120029140084319467047CE
:10062000202A06DBCB17203A41FA02F043EAE073B6
:1006300006E041FA02F3D040C2F1200291400843A3
:10064000194670470029A8BF7047401C490008BFE1
:1006500020F00100704710B4B0FA80FC00FA0CF0F2
:1006600050EA010404BF10BC704749B1CCF120042A
:1006700021FA04F411FA0CF118BF012121430843B7
:10068000A3EB0C01CB1D4FEA00614FEA102042BFE3
:10069000002010BC704700EBC35010440029A4BFD9
:1006A00010BC7047401C490008BF20F0010010BC7E
:1006B000704710B5141E73F1000408DA401C41F1B4
:1006C000000192185B411A4301D120F0010010BDD6
:1006D0002DE9F04D92469B4611B1B1FA81F202E04C
:1006E000B0FA80F220329046FFF77BFF04460F46B7
:1006F00040EA0A0041EA0B0153465A46084313D028
:10070000114653EA010019D0C8F140025046FFF7E4
:1007100077FF05460E46504659464246FFF761FFB1
:10072000084305D0012004E020463946BDE8F08D9D
:100730000020054346EAE0762C4337430A986305D8
:10074000E40AA0EB08000022FD0A44EA47540A30FC
:1007500002D500200146E9E7010510196941DDE9EC
:10076000084500196941BDE8F04DA2E7064C074D68
:1007700006E0E06840F0010394E807009847103471
:10078000AC42F6D3FFF716FDAC730008CC7300083B
:1007900000BFFEE710B5024800F0AFFE10BD00003C
:1007A0000001002010B5024800F0A7FE10BD0000B7
:1007B0002801002070B504460D463C492068884257
:1007C00064D140F20221681A8D423BD00ADCB5F5B3
:1007D000887F4DD0B5F5A17F3FD0A5F2012000283C
:1007E00052D106E001281AD002280DD004284BD19E
:1007F00020E02F492F4803F0C5F901202D49087743
:1008000000202D49C87040E029492C4803F0BAF96E
:1008100001202A49087700202749487135E02449FA
:10082000274803F0AFF90120254908770020224925
:10083000C8712AE01E49234803F0A4F90120214988
:10084000087722E01A49204803F09CF901201E494C
:10085000087700201849487017E015491B4802F036
:1008600069FF0120194908770020134948720CE0FC
:100870000F49174800F0EEFB0120154981F82000D0
:1008800000200D49487300E000BF00BF11492068F7
:10089000884209D1A5F2062020B90F490A4803F081
:1008A00071F900E000BF00BF70BD000000640040AF
:1008B000B4000020884E0020E44C0020084F0020A7
:1008C000884F0020884D0020084E0020085000204E
:1008D0008850002000680040BC00002010B58AB09D
:1008E000044600200590069001200790002000900B
:1008F000019002900390049001200890002009903C
:100900006946204600F09CFC08B100F0E3F920465F
:1009100001F0B7F808B100F0DDF90221204600F03F
:10092000D5FB08B100F0D6F90121204600F0CEFB3E
:1009300008B100F0CFF90AB010BD2DE9F04389B03D
:1009400081460E4614461D46DDE9107800200090D1
:100950000820079000200590069003960490200A36
:100960008DF80400E0B28DF80500280A8DF8060025
:10097000E8B28DF80700380A8DF80800F8B28DF853
:1009800009004FEA18208DF80A0008F0FF008DF8E2
:100990000B006B4601AA03A9484600F0ACFB09B066
:1009A000BDE8F08300B507480088401C0549088071
:1009B00008460088322804DD00F0D0F80020014904
:1009C000088000BDC40000200178427841EA02217D
:1009D000C1F30A01604A11804178C910827841EA66
:1009E0004211C1F30A015C4A518081788911C278B1
:1009F00041EA8201027941EA8221C1F30A01564AA1
:100A0000918001794910427941EAC211C1F30A018A
:100A1000514AD180017C427C41EA0221C1F30A01A2
:100A20004D4A91811146098831B31146498819B35D
:100A30001146898801B31146C988E9B11146098870
:100A4000A1F5806109B2118011464988A1F5806144
:100A500009B2518011468988A1F5806109B291805F
:100A60001146C988A1F5806109B2D18011468989F2
:100A7000A1F5806109B291813749B1F900100A29C5
:100A800008DA3549B1F9001011F10A0F02DD002131
:100A9000314A11803049B1F902100A2908DA2E4989
:100AA000B1F9021011F10A0F02DD00212A4A51802A
:100AB0002949B1F904100A2908DA2749B1F90410C3
:100AC00011F10A0F02DD0021234A91802249B1F978
:100AD00006100A2908DA2049B1F9061011F10A0FA7
:100AE00002DD00211C4AD1801B49B1F90C10642998
:100AF00008DA1949B1F90C1011F1640F02DD002177
:100B0000154A91811449097A134A91721146497A1A
:100B1000D1724179C1F30111117241798909517280
:100B20008179C27941EA022109B20B4AD181017A65
:100B3000427A41EA02210AB207490A82027B097D10
:100B400062F30001044A1175427B0349097D62F397
:100B50004101014A117570470A4D002000200D49DE
:100B6000088048808880C88088818872C87208722E
:100B70004872C8810021074801824182007D20F02F
:100B8000010104480175007D20F002010148017552
:100B9000704700000A4D002010B5024801F012F81D
:100BA00010BD00007002002010B5024801F00AF8E4
:100BB00010BD00003003002010B5024801F002F81B
:100BC00010BD0000D002002001460878103818231C
:100BD000B0FBF3F20848805CC865032A05D90868B1
:100BE0006FF30900001D886503E008686FF30900D2
:100BF0008865886D70470000DC720008014600209F
:100C00008A6A8B69CBB932B1012A0DD0022A03D08E
:100C1000032A10D10EE000BFCB6A03F08073B3F15A
:100C2000807F00D1012007E0CB6AB3F1C07F00D103
:100C3000012001E000E000BF34E08B69B3F5005F04
:100C40001AD132B1012A07D0022A03D0032A11D1C6
:100C50000AE000BF01200EE0CB6A03F08073B3F11D
:100C6000807F00D1012006E0CB6AB3F1C07F00D1C4
:100C7000012000E000BF15E032B1012A05D0022AB0
:100C800004D0032A0CD103E000BF00BF012008E01C
:100C9000CB6A03F08073B3F1807F00D1012000E0C4
:100CA00000BF00BF704730B50468246824F4802476
:100CB00005682C60046863608468402C04D1046873
:100CC000A2600468E16003E00468A1600468E26077
:100CD00030BD704772B600BFFEE7000000B593B0AC
:100CE0002C49D1E900028968CDE911211090DFED8E
:100CF0002A0A9FED2A0A10A9294803F045F8254A37
:100D00000C32D2E900109268CDE90E020D91DFEDB0
:100D1000250A9FED250A0DA92148303003F034F84B
:100D20001C4A183207CA0AAB07C3F2EE040A9FED49
:100D30001E0A0AA91A48603003F026F8154A243220
:100D400007CA07AB07C3DFED190A9FED170A07A90A
:100D50001348903003F018F80E4A303207CA04AB3B
:100D600007C3F2EE040A9FED100A04A90C48C03034
:100D700003F00AF80020019002900390DFED0A0AC8
:100D80009FED090A01A90648F03002F0FDFF13B0FB
:100D900000BD00002C7300080000C8420AD7A33C25
:100DA000885100200000C8430000000000606A462F
:100DB00010B53348006802280BD0324890ED010A84
:100DC000314880ED350A2F4890ED000A2E4880ED1D
:100DD0004D0A2D4890ED350AB0EE401AFBEE0E0A92
:100DE000B2EE040A02F01EFC274880ED350A90EDB1
:100DF0004D0AB0EE401ADFED250A9FED250A02F0FC
:100E000011FC214880ED4D0A1E4890ED011AF0EECC
:100E1000410A1D4890ED351AB0EE410AC83002F083
:100E200035FF184890ED031AF0EE410A164890ED90
:100E30003D1AB0EE410AF83002F028FF114890ED5B
:100E4000001AF0EE410A104890ED4D1AB0EE410A3A
:100E500000F5947002F01AFF0A4890ED021AF0EEC5
:100E6000410A094890ED551AB0EE410A00F5AC7000
:100E700002F00CFF044890ED610A80ED310A10BDCC
:100E8000F400002088500020C0500020000096C2CE
:100E900000009642104890ED350A1048B0F906005F
:100EA00000EE900AF8EEE00A9FED0D1A00EE810ABE
:100EB000094880ED350A90ED4D0A0848B0F9040064
:100EC00000EE900AF8EEE00A9FED051A00EEC10A66
:100ED000014880ED4D0A7047C05000200A4D0020A7
:100EE0006F12833A10B51F4890ED010A1E4880ED3D
:100EF000350A1C4890ED000A1B4880ED4D0A1B483E
:100F000090ED020A184880ED000A194890ED020A97
:100F1000154880ED010A083002F054FF12483830BD
:100F200002F050FF1048683002F04CFF0E48983035
:100F300002F048FF0C48C83002F044FF0A48F8307D
:100F400002F040FF0B4802F03DFF0A48303002F04B
:100F500039FF0848603002F035FF0648903002F053
:100F600031FF10BD88500020C050002008500020E4
:100F7000084E0020E851002010B5314800680328D1
:100F80000BD0304890ED010A2F4880ED350A2D48EE
:100F900090ED000A2C4880ED4D0A2B4890ED350A63
:100FA000B0EE401AFBEE0E0AB2EE040A02F03AFB73
:100FB000254880ED350A90ED4D0AB0EE401ADFED80
:100FC000230A9FED230A02F02DFB1F4880ED4D0AF6
:100FD0001C4890ED011AF0EE410A1B4890ED351ABD
:100FE000B0EE410AC83002F051FE164890ED031AE7
:100FF000F0EE410A144890ED3D1AB0EE410AF83087
:1010000002F044FE0F4890ED001AF0EE410A0E483F
:1010100090ED4D1AB0EE410A00F5947002F036FEE4
:10102000084890ED021AF0EE410A074890ED551A73
:10103000B0EE410A00F5AC7002F028FE10BD0000D1
:10104000F400002088500020C0500020000096C20C
:1010500000009642D0ED000AC0ED050A0A784B78F0
:1010600042EA032212B200EE102AF8EEC00A9FED07
:10107000151A60EE810AC0ED000AD0ED010AC0ED3C
:10108000040A8A78CB7842EA032212B200EE102AD0
:10109000F8EEC00A9FED0C1A60EE810AC0ED010A5D
:1010A000D0ED000A90ED051A70EEC10AC0ED020AFB
:1010B000D0ED010A90ED041A70EEC10AC0ED030AEA
:1010C00070470000CDCC4CBCCDCC4C3C10B502469A
:1010D00092F82030012B01D0022B06D11068406914
:1010E000084314686061002010BD506A40F48020FD
:1010F00050620120F8E7F0B504460D461E4694F80C
:10110000207020688368A86800B900E000BF012F44
:1011100001D0022F7DD103F0806030B903F0006070
:1011200018B903F0805000287ED0C3F3016101207C
:1011300088403060A86860B9B5F800C0E86840EA47
:101140004C5C206800F5C07000EB0110C0F800C0D6
:101150000FE0D5E901C040EACC00D5F80CC040EA68
:101160000C00D4F800C00CF5C07C0CEB011CCCF8D2
:101170000000D5F810C0206800F5C07000EB011029
:10118000C0F804C0287D01280ED1206800F5C07089
:1011900000EB0110406840F4807C206800F5C070CE
:1011A00000EB0110C0F804C0D079000692F806C028
:1011B00040EA0C4092F805C040EA0C2092F804C0C6
:1011C00040EA0C00D4F800C00CF5C07C0CEB011C0C
:1011D000CCF80C00D078000692F802C040EA0C402F
:1011E00092F801C040EA0C2092F800C040EA0C00DE
:1011F000D4F800C00CF5C07C0CEB011CCCF8080046
:10120000206800F5C07000EB0110006840F0010C90
:1012100001E00FE008E0206800F5C07000EB01106D
:10122000C0F800C00020F0BD606A40F400106062A9
:101230000120F8E7606A40F4802060620120F2E754
:10124000F0B504460A46216894F82050012D01D0DB
:10125000022D7ED1424901F50071086840F001007D
:101260000860086820F47C5008600868566A40EA04
:1012700006200860107D00F01F06012000FA06F32A
:10128000C8699843C861A1F50071D069C8B9D1F89F
:101290000C029843C1F80C02908880B2968940EA0B
:1012A000064601F51070576940F83760108880B223
:1012B000168940EA064601F51070576900EBC70031
:1012C0004660D069012819D1D1F80C021843C1F841
:1012D0000C02908880B2168840EA064601F510702C
:1012E000576940F83760908980B2168940EA06460F
:1012F00001F51070576900EBC7004660906928B986
:10130000D1F804029843C1F8040204E0D1F80402C1
:101310001843C1F80402106928B9D1F8140298439F
:10132000C1F8140204E0D1F814021843C1F8140201
:10133000106A012804D1D1F81C021843C1F81C021C
:10134000D1F8000220F00100C1F800020020F0BD39
:10135000FFE7606A40F4802060620120F7E7000048
:1013600000640040704770B5044694F82050012D89
:1013700001D0022D7DD151B92068C06800F0030072
:1013800080B9606A40F400106062012070BD20687E
:10139000006900F0030028B9606A40F40010606240
:1013A0000120F3E7206800F5D87000EB0110006819
:1013B00000F004009060906840B9206800F5D87093
:1013C00000EB01100068400D106007E0206800F598
:1013D000D87000EB01100068C0085060206800F56C
:1013E000D87000EB0110006800F00200D0602068A7
:1013F00000F5D87000EB0110406800F00F000828DD
:1014000002D30820106108E0206800F5D87000EBD6
:101410000110406800F00F001061206800F5D870DE
:1014200000EB0110406800F47F40000A90612068E2
:1014300000F5D87000EB01104068000C5061206886
:1014400000F5D87000EB011080681870206800F576
:10145000D87000EB0110806800F47F40000A5870DB
:10146000206800F5D87000EB0110806800F47F0060
:1014700000E03CE0000C9870206800F5D87000EBAC
:1014800001108068000ED870206800F5D87000EB5D
:101490000110C0681871206800F5D87000EB0110C9
:1014A000C06800F47F40000A5871206800F5D870C9
:1014B00000EB0110C06800F47F00000C98712068F8
:1014C00000F5D87000EB0110C068000ED87131B97A
:1014D0002068C06840F020002668F06005E02068C1
:1014E000006940F020002668306100204EE7606A05
:1014F00040F480206062012048E72DE9F05F044657
:101500000025206846692068D0F804902068876824
:101510002068D0F80CA02068D0F810B02068D0F86F
:10152000188006F00100002855D007F00100C0B176
:1015300001202168886007F0020018B1204600F001
:10154000D0FA0EE007F0040010B145F4006508E0A1
:1015500007F0080010B145F4805502E0204600F085
:10156000BFFA07F48070C8B14FF4807021688860BA
:1015700007F4007018B1204600F0B5FA0EE007F449
:10158000806010B145F4005508E007F4006010B128
:1015900045F4804502E0204600F0A4FA07F48030CC
:1015A000C8B14FF480302168886007F4003018B16A
:1015B000204600F09AFA0EE007F4802010B145F4BE
:1015C000004508E007F4002010B145F4803502E042
:1015D000204600F089FA06F0080038B10AF0100041
:1015E00020B145F4007510202168C86006F00400A1
:1015F00040B10AF0080028B108202168C8602046E0
:1016000000F00CFA06F0020038B12068C06800F063
:10161000030010B1204600F003FA06F0400038B194
:101620000BF0100020B145F480651020216808619E
:1016300006F0200040B10BF0080028B10820216816
:101640000861204600F01AFA06F0100038B1206850
:10165000006900F0030010B1204600F010FA06F413
:10166000003040B109F0100028B110202168486016
:10167000204600F005FA06F4803040B109F0080079
:1016800028B1082021684860204600F02FFA06F4AF
:10169000004088B309F0040078B306F4807020B1EC
:1016A00008F0010008B145F0010506F4007020B112
:1016B00008F0020008B145F0020506F4806020B190
:1016C00008F0040008B145F0040506F40060A0B17C
:1016D00008F0700088B108F07000402817D006DCD0
:1016E00010280BD020280CD0302819D10CE050281D
:1016F00010D0602814D110E01DE019E045F0080575
:101700000FE045F010050CE045F0200509E045F03C
:10171000400506E045F0800503E045F4807500E0F3
:1017200000BF00BF2068806920F0700021688861D8
:101730000420216848602DB1606A28436062204619
:10174000FFF710FEBDE8F09F70B504460CB901200C
:1017500070BD94F8200010B9204600F0AFF8206862
:10176000006840F001002168086000F019FD05469E
:101770000DE000F015FD401B0A2808D9606A40F40E
:1017800000306062052084F820000120E0E7206836
:10179000406800F001000028EBD02068006820F0CD
:1017A00002002168086000F0FBFC05460DE000F037
:1017B000F7FC401B0A2808D9606A40F400306062D8
:1017C000052084F820000120C2E72068406800F06E
:1017D00002000028EBD1207E012806D12068006895
:1017E00040F080002168086005E02068006820F073
:1017F000800021680860607E012806D120680068AA
:1018000040F040002168086005E02068006820F092
:10181000400021680860A07E012806D12068006889
:1018200040F020002168086005E02068006820F092
:10183000200021680860E07E012806D12068006849
:1018400020F010002168086005E02068006840F082
:10185000100021680860207F012806D120680068F8
:1018600040F008002168086005E02068006820F06A
:10187000080021680860607F012806D120680068A0
:1018800040F004002168086005E02068006820F04E
:10189000040021680860D4E9020108432169084373
:1018A000616908436168491E08432168C8610020D6
:1018B0006062012084F82000002049E710B586B05E
:1018C0000446142101A8FEF739FD4E4920688842DC
:1018D00041D14D480068401C4B49086008460068EB
:1018E00001280FD100BF002000904848006840F058
:1018F0000070464908600846006800F000700090DB
:1019000000BF00BF00BF00200090404810380068B2
:1019100040F008003D49103908600846006800F0B2
:101920000800009000BF00BF032001900220029039
:1019300000200390032004900920059001A9344859
:1019400000F020FB00220521142000F0F1FC1420FF
:1019500000F0DAFC54E02F492068884250D100BFE3
:10196000002000902948006840F080602749086006
:101970000846006800F08060009000BF00BF224869
:101980000068401C204908600846006801280FD103
:1019900000BF002000901D48006840F000701B4907
:1019A00008600846006800F00070009000BF00BFAB
:1019B00000BF0020009015481038006840F0020079
:1019C0001249103908600846006800F002000090D3
:1019D00000BF00BF60200190022002900020039011
:1019E000032004900920059001A90B4800F0CAFAD1
:1019F00000220521402000F09BFC402000F084FCE8
:101A000006B010BD006400402000002040380240B5
:101A1000000C0240006800400004024070470000D3
:101A200010B504460F49206888420AD10E4B0F4A70
:101A300000212046FFF797FC0C4801682046FEF77E
:101A4000B9FE0B49206888420AD10A4B0A4A002194
:101A50002046FFF788FC084801682046FEF7AAFEEA
:101A600010BD000000640040B4000020AC4C002019
:101A700000680040BC000020C84C00207047704740
:101A8000704770B5044694F82000012822D1022046
:101A900084F820002068006820F0010021680860B8
:101AA00000F07EFB05460DE000F07AFB401B0A28A3
:101AB00008D9606A40F400306062052084F8200094
:101AC000012070BD2068406800F001000028EBD1C3
:101AD0006062F6E7606A40F4002060620120F0E78F
:101AE000704770477047704770477047704770B5D0
:101AF0000446A56D00F054FB064694F83500022814
:101B000008D08020606500BF002084F8340000BF4A
:101B1000012070BD2068006820F016002168086070
:101B20002068406920F0800021684861206C08B975
:101B3000A06C28B12068006820F0080021680860C7
:101B40002068006820F001002168086010E000F0C3
:101B500027FB801B05280BD920206065032084F813
:101B6000350000BF002084F8340000BF0320D0E718
:101B70002068006800F001000028E8D194F85C10AB
:101B80003F208840A860012084F8350000BF002075
:101B900084F8340000BF00BFBBE7014691F8350070
:101BA000022803D08020486501207047052081F875
:101BB00035000868006820F001000A681060002005
:101BC000F3E70000F8B50446002000908C48006858
:101BD0004FF41651B0FBF1F7A56D2E6894F85C1028
:101BE00008208840304098B12068006800F0040068
:101BF00070B12068006820F004002168086094F843
:101C00005C1008208840A860606D40F001006065AD
:101C100094F85C1001208840304068B12068406929
:101C200000F0800040B194F85C1001208840A8606A
:101C3000606D40F00200606594F85C1004208840FC
:101C4000304068B12068006800F0020040B194F8AC
:101C50005C1004208840A860606D40F0040060655E
:101C600094F85C1010208840304078B320680068F9
:101C700000F0080050B394F85C1010208840A86071
:101C80002068006800F4802080B12068006800F4BB
:101C9000002028B9206CC8B12046216C884715E087
:101CA000A06C98B12046A16C88470FE020680068BE
:101CB00000F4807028B92068006820F008002168CE
:101CC0000860206C10B12046216C884794F85C10A5
:101CD000202088403040002865D02068006800F04F
:101CE000100000285FD094F85C1020208840A86085
:101CF00094F83500052828D12068006820F01600E7
:101D0000216808602068406920F0800021684861EF
:101D1000206C08B9A06C28B12068006820F0080089
:101D20002168086094F85C103F208840A86001207A
:101D300084F8350000BF002084F8340000BF206D17
:101D400010B12046216D8847F8BD2068006800F476
:101D5000802080B12068006800F4002028B9606C01
:101D600010B12046616C88471DE0E06BD8B1204679
:101D7000E16B884717E02068006800F4807068B95C
:101D80002068006820F0100021680860012084F8B5
:101D9000350000BF002084F8340000BFE06B10B1B4
:101DA0002046E16B8847606D38B3606D00F001003C
:101DB000F0B1052084F835002068006820F00100AB
:101DC0002168086000BF0098401C0090B84200D90C
:101DD00005E02068006800F001000028F3D100BF92
:101DE000012084F8350000BF002084F8340000BFD3
:101DF000E06C10B12046E16C884700BFA4E700000A
:101E0000300000202DE9F0410446002500F0C8F91B
:101E1000074614B90120BDE8F081606A00B100BF37
:101E2000022084F8350000BF002084F8340000BF91
:101E30002068006820F00100216808600AE000F0D6
:101E4000AFF9C01B052805D920206065032084F860
:101E50003500E0E72068006800F001000028EED1BE
:101E60002068056821480540D4E901010843E1687C
:101E700008432169084361690843A1690843E1698E
:101E80000843216A08430543606A042803D1D4E962
:101E90000B0108430543206805602068456925F06B
:101EA0000705606A0543606A04280DD1A06A0543EE
:101EB000E06A48B12046FEF7A1FE28B140206065E7
:101EC000012084F83500A6E7206845612046FEF72A
:101ED0007BFE064694F85C103F208840B0600020EE
:101EE0006065012084F83500002094E73F8010F001
:101EF0002DE9F04704460D4616461F464FF00008F0
:101F0000D4F8589000BF94F83400012802D1022080
:101F1000BDE8F087012084F8340000BF94F8350054
:101F2000012825D1022084F83500002060653B4659
:101F3000324629462046FEF7B6FE94F85C103F2054
:101F40008840C9F808002068006840F01600216841
:101F50000860206C28B12068006840F00800216803
:101F600008602068006840F001002168086006E011
:101F700000BF002084F8340000BF4FF00208404644
:101F8000C6E70000F8B502460B46002500240020F5
:101F90000021E0E0012606FA01F51E6806EA0504C4
:101FA000AC4274D11E7906F00306012E04D01E79CE
:101FB00006F00306022E13D190684F000326BE40A0
:101FC000B0434F00DE68BE40304390605068012649
:101FD0008E40B0431E79C6F300168E4030435060E9
:101FE0001E7906F00306032E09D0D0684F000326A1
:101FF000BE40B0434F009E68BE403043D0601E7963
:1020000006F00306022E13D1CF0802F1200656F87F
:1020100027004E07F70E0F26BE40B0434F07FF0EB6
:102020001E69BE403043CF0802F1200646F8270063
:1020300010684F000326BE40B0431E7906F0030629
:102040004F00BE40304310605E6806F44036002EFC
:102050001DD000BF00260096414E366846F48046EB
:102060003F4F3E603E46366806F48046009600BF0D
:1020700000BF3C4E8F0856F827008E07370F0F26FB
:10208000BE40B043384EB24202D100262EE061E09D
:10209000364EB24201D1012628E0354EB24201D17E
:1020A000022623E0334EB24201D103261EE0324E17
:1020B000B24201D1042619E0304EB24201D10526C8
:1020C00014E02F4EB24201D106260FE02D4EB2424F
:1020D00001D107260AE02C4EB24201D1082605E0C4
:1020E0002A4EB24201D1092600E00A268F073F0F8F
:1020F000BE4030431B4E8F0846F82700244E306800
:10210000A0435E6806F4801606B12043204E30607E
:10211000361D3068A0435E6806F4001606B1204301
:102120001B4E361D30601A4E361F3068A0435E6865
:1021300006F4003606B12043154E361F3060361FB8
:102140003068A0435E6806F4803606B12043104E26
:10215000083E3060491C1029FFF41CAFF8BD000098
:1021600044380240083801400000024000040240A8
:1021700000080240000C024000100240001402401F
:1021800000180240001C02400020024000240240CF
:10219000083C01400AB1816101E00B048361704792
:1021A00001480068704700002400002003480068D0
:1021B0000349097808440149086070472400002059
:1021C0002C00002010B50D48006840F400700B4949
:1021D00008600846006840F48060086008460068AF
:1021E00040F480700860032000F0E0F80F2000F059
:1021F00007F800F05FF8002010BD0000003C02402E
:102200002DE9F04188B004460027B84600BF002001
:1022100001902348006840F01000214908600846FA
:10222000006800F01000019000BF00BF02A903A8E1
:1022300000F0D8F9069F1FB900F0FCF9054602E04E
:1022400000F0F8F945001748B5FBF0F0A0F10108DF
:1022500015481649086040F2E7311448C160C0F8DB
:102260000480002101618160816100F0ABFC0646C1
:1022700096B90E4800F0DAFC06466EB9362000F03A
:1022800043F8102C07D200222146362000F050F8E7
:102290000748046000E00126304608B0BDE8F08140
:1022A0004038024040420F000010004090030020E0
:1022B0002800002008B500BF0020009011480068E9
:1022C00040F480400F4908600846006800F48040F0
:1022D000009000BF00BF00BF00200090081F0068F2
:1022E00040F08050091F08600846006800F08050E8
:1022F000009000BF00BF00220F21901E00F018F8D0
:1023000008BD0000443802400146084600280DDBA5
:1023100000BF00BF00F01F0301229A4043099B0049
:1023200003F1E023C3F8002100BF00BF00BF7047E6
:102330002DE9F05F80460D461646002702F0EAFDC3
:10234000074639462A46334601F00700C0F1070A1E
:10235000BAF1040F02D94FF0040A01E0C0F1070AF4
:10236000D14600F1040ABAF1070F02D24FF0000A79
:1023700001E0A0F1030AD4464FF0010A0AFA09FA73
:10238000AAF1010A0AEA020A0AFA0CFA4FF0010B52
:102390000BFA0CFBABF1010B0BEA030B4AEA0B0443
:1023A0002146404602F0BEFDBDE8F09F00BF00F0B0
:1023B0000702064B19684FF6FF031940044B0B4305
:1023C00043EA0221014B196000BF70470CED00E0A9
:1023D0000000FA0538B5002400BF002000901D4819
:1023E000006840F080501B4908600846006800F013
:1023F0008050009000BF00BF012017490864FFF71C
:10240000CFFE044607E0FFF7CBFE001BB0F57A7F56
:1024100001D9032038BD1148406800F48030B0F580
:10242000803FF0D101200C494864FFF7B9FE044613
:1024300007E0FFF7B5FE001BB0F57A7F01D9032056
:10244000E8E70648406800F40030B0F5003FF0D1FE
:102450000020DFE74038024000000E4200700040DC
:1024600070B504460D460CB9012070BD584800688F
:1024700000F00F00A84209D255490D7008460068C7
:1024800000F00F00A84201D00120EEE7207800F014
:10249000020002281DD1207800F00400042805D194
:1024A0004C48006840F4E0504A490860207800F049
:1024B0000800082805D14748006840F460404549B5
:1024C00008604448006820F0F000A16808434149D2
:1024D0000860207800F00100A8B36068012807D1E7
:1024E0003C4808380068C0F34040B8B90120BCE758
:1024F0006068022802D06068032807D13548083890
:102500000068C0F3406048B90120AEE731480838A0
:102510000068C0F3400008B90120A6E72D48006814
:1025200020F00300616808432A490860FFF738FE7D
:10253000064609E0FFF734FE801B41F288318842ED
:1025400002D9032091E707E02248006800F00C0060
:102550006168B0EB810FEDD11D48006800F00F00FD
:10256000A84209D91A490D700846006800F00F000A
:10257000A84201D0012078E7207800F00400042868
:1025800007D11448006820F4E050E168084311497D
:102590000860207800F00800082808D10D4800687D
:1025A00020F46040216940EAC1000A49086000F057
:1025B00061F808490968C1F30311074A515CC84032
:1025C0000649086006480068FFF71AFE00204CE73D
:1025D000003C024008380240E4720008300000204D
:1025E000280000200F2202600D4A126802F0030248
:1025F00042600B4A126802F0F0028260084A1268D8
:1026000002F4E052C260064A126802F46042D20844
:102610000261044A126802F00F020A60704700006B
:1026200008380240003C0240014800687047000042
:102630003000002000B5FFF7F7FF04490968C1F337
:102640008221034A515CC84000BD000008380240A6
:10265000F472000800B5FFF7E7FF04490968C1F309
:102660004231034A515CC84000BD000008380240B6
:10267000F47200082DE9F047002400250026A14649
:102680002548006800F00C0020B1042805D0082877
:102690003AD105E0DFF8849039E0DFF8849036E045
:1026A0001D48001F006800F03F041B48001F006821
:1026B00000F4800078B11A481749091F0968C1F36E
:1026C0008811A0FB01700146224600233846FDF721
:1026D000EBFD05460EE011480F49091F0968C1F3DB
:1026E0008811A0FB01700146224600233846FDF701
:1026F000DBFD05460848001F0068C0F30140401C90
:102700004600B5FBF6F902E0DFF8109000BF00BF0D
:102710004846BDE8F0870000083802400024F40075
:10272000001BB700F8B504460CB90120F8BD2078AD
:1027300000F00100002874D0F948006800F00C0097
:1027400004280DD0F648006800F00C00082813D1CA
:10275000F348001F006800F48000B0F5800F0BD133
:10276000EF4808380068C0F34040002859D060683E
:10277000002856D10120D9E700BF6068B0F5803F3E
:1027800008D1E7480838006840F48030E449083947
:1027900008601EE06068B0F5A02F0DD1E048083851
:1027A000006840F48020DE49083908600846006867
:1027B00040F4803008600CE0D9480838006820F404
:1027C0008030D749083908600846006820F4802026
:1027D000086000BF606890B1FFF7E2FC054606E0C4
:1027E000FFF7DEFC401B642801D903209EE7CC489C
:1027F00008380068C0F340400028F1D011E0FFF72E
:10280000CFFC054606E0FFF7CBFC401B642801D94E
:1028100003208BE7C24808380068C0F34040002816
:10282000F1D1207800F0020002285FD1BC48006896
:1028300000F00C0058B1BA48006800F00C000828FD
:102840001CD1B748001F006800F48000B0B9B4483C
:1028500008380068C0F3400020B1E068012801D0CA
:10286000012063E7AE480838006820F0F8002169CD
:1028700040EAC100AA490839086037E0E06800B3BF
:102880000120A8490860FFF78BFC054606E0FFF72A
:1028900087FC401B022801D9032047E7A0480838DD
:1028A0000068C0F340000028F1D09D480838006857
:1028B00020F0F800216940EAC10099490839086010
:1028C00014E0002097490860FFF76AFC054606E01F
:1028D000FFF766FC401B022801D9032026E7904839
:1028E00008380068C0F340000028F1D1207800F0DB
:1028F000080008282CD16069A8B101208A49086025
:10290000FFF74EFC054606E0FFF74AFC401B022895
:1029100001D903200AE782486C300068C0F3400008
:102920000028F1D014E000207F490860FFF738FC50
:10293000054606E0FFF734FC401B022801D90320BE
:10294000F4E677486C300068C0F340000028F1D10D
:10295000207800F00400042870D100277048383037
:10296000006800F0805090B900BF002000906C48D3
:102970003830006840F080506949383108600846B6
:10298000006800F08050009000BF00BF012767483A
:10299000006800F48070B0B96448006840F480704A
:1029A00062490860FFF7FCFB054606E0FFF7F8FB0D
:1029B000401B022801D90320B8E65C48006800F4F7
:1029C00080700028F2D000BFA068012808D15448C8
:1029D0006830006840F001005149683108601DE02E
:1029E000A06805280DD14E486830006840F004000A
:1029F0004B49683108600846006840F001000860F3
:102A00000CE047486830006820F001004449683114
:102A100008600846006820F00400086000BFA06855
:102A2000A8B1FFF7BDFB054609E0FFF7B9FB401B66
:102A300041F28831884202D9032077E626E03848FF
:102A400068300068C0F340000028EED013E0FFF7C4
:102A5000A7FB054608E0FFF7A3FB401B41F28831C6
:102A6000884201D9032061E62D4868300068C0F330
:102A700040000028EFD1012F07D1294838300068E5
:102A800020F0805026493831086000BFA069002836
:102A900045D02348006800F00C0008285DD0A069EC
:102AA000022845D100201F490866FFF779FB05463B
:102AB00006E0FFF775FB401B022801D9032035E62D
:102AC000174808380068C0F340600028F1D1D4E905
:102AD00007010843616A40EA81110122A06AC2EB42
:102AE000500041EA00412C20005D41EA00600C49A1
:102AF000091F086001200B490866FFF751FB0546D6
:102B000006E0FFF74DFB401B022801D903200DE62C
:102B1000034808380068C0F340600028F1D049E05D
:102B20000838024000004742800E474200700040D3
:102B3000002021490866FFF733FB054606E0FFF752
:102B40002FFB401B022801D90320EFE51B4800683A
:102B5000C0F340600028F2D12CE0A069012800D128
:102B6000E4E51648001D0668A069012820D006F497
:102B70008001E06981421BD106F03F01206A814259
:102B800016D147F6C0703040616AB0EB811F0FD19B
:102B900006F440310122A06AC2EB5000B1EB004FB5
:102BA00006D106F070612C20005DB1EB006F01D002
:102BB0000120BBE50020B9E5000047420038024093
:102BC0007047704710B504460CB9012010BD94F849
:102BD0003D0028B9002084F83C00204600F025F88C
:102BE000022084F83D00211D206801F0DBFB01205C
:102BF00084F8460000BF84F83E0001213F200155C3
:102C0000402001554120015500BF00BF012084F83C
:102C1000420043200155442001554520015500BF85
:102C2000012084F83D000020D0E77047014691F86C
:102C30003D00012801D001207047022081F83D00AD
:102C40000868C06840F001000B68D8601A4B08683B
:102C500098421BD00868B0F1804F17D0174B086816
:102C6000984213D0164B086898420FD0154B08684D
:102C700098420BD0144B0868984207D0134B086851
:102C8000984203D0124B086898420CD108688068BB
:102C900000F00702062A0CD00868006840F0010026
:102CA0000B68186005E00868006840F001000B68D8
:102CB00018600020C0E70000000001400004004050
:102CC00000080040000C00400004014000400140AA
:102CD00000180040704770B504462068C568206839
:102CE000066906F00200022819D105F00200022848
:102CF00015D1401F21680861012020772068806974
:102D000000F0030018B12046FFF7E4FF05E020467D
:102D100000F097F8204600F095F80020207706F0A4
:102D20000400042819D105F00400042815D1C0437B
:102D300021680861022020772068806900F44070D3
:102D400018B12046FFF7C6FF05E0204600F079F8ED
:102D5000204600F077F80020207706F008000828C9
:102D600019D105F00800082815D1C0432168086171
:102D7000042020772068C06900F0030018B12046C5
:102D8000FFF7A8FF05E0204600F05BF8204600F0C2
:102D900059F80020207706F01000102819D105F00E
:102DA0001000102815D1C043216808610820207741
:102DB0002068C06900F4407018B12046FFF78AFF10
:102DC00005E0204600F03DF8204600F03BF80020EA
:102DD000207706F0010048B105F0010030B16FF036
:102DE000010021680861204600F02EF806F08000FE
:102DF000802809D105F08000802805D1C0432168D2
:102E000008612046FFF7DCFE06F04000402809D1AB
:102E100005F04000402805D1C043216808612046E4
:102E200000F01EF806F02000202809D105F020004F
:102E3000202805D1C043216808612046FFF7C1FE64
:102E400070BD70477047000010B504460349206804
:102E5000884201D1FFF7AAF910BD00000010004020
:102E60007047704770B50446002520684069C0F37C
:102E7000C01594F84100212817D1B5B100BF00BF9B
:102E80002168143151E8001F21F0800021681431BD
:102E900041E80002002AF3D100BFA06B10B1A06B83
:102EA000FEF725FE204601F010FC20684069C0F3C3
:102EB000801594F84200222817D1B5B100BF00BF99
:102EC0002168143151E8001F21F0400021681431BD
:102ED00041E80002002AF3D100BFE06B10B1E06BC3
:102EE000FEF705FE204601F0AAFB002070BD7047EA
:102EF0002DE9F84F0446206805682068C6682068F8
:102F000047694FF00009CA4605F00F09B9F1000FF3
:102F10000AD105F0200038B106F0200020B120468B
:102F200001F0E6FBBDE8F88FB9F1000F7CD007F0A7
:102F3000010018B906F49070002875D005F0010062
:102F400030B106F4807018B1606C40F0010060642C
:102F500005F0040030B107F0010018B1606C40F0DA
:102F60000200606405F0020030B107F0010018B102
:102F7000606C40F00400606405F0080048B106F0A1
:102F8000200010B907F0010018B1606C40F0080093
:102F90006064606C002846D005F0200028B106F07F
:102FA000200010B1204601F0A3FB20684069C0F367
:102FB000801A606C00F0080010B9BAF1000F2DD033
:102FC000204601F03CFB2068406900F040004028AA
:102FD00020D100BF00BF2168143151E8001F21F04B
:102FE00040002168143141E80002002AF3D100BFFB
:102FF000E06B50B17748E16B0865E06BFEF7CDFD03
:1030000088B1E06B016D88470DE02046FFF76FFF48
:1030100009E009E02046FFF76AFF04E02046FFF7D9
:1030200066FF002060647DE7206B012878D105F001
:103030001000002874D006F010000028FAD000BF5D
:103040000020009020680068009020684068009090
:1030500000BF00BF2068406900F04000402860D1F8
:10306000E06B006840681FFA80F8B8F1000F56D096
:10307000A08D404553DDA4F82E80E06BC069B0F50B
:10308000807F43D000BF00BF21680C3151E8001F92
:1030900021F4807021680C3141E80002002AF3D14C
:1030A00000BF00BF00BF2168143151E8001F21F0AC
:1030B00001002168143141E80002002AF3D100BF69
:1030C00000BF00BF2168143151E8001F21F040000B
:1030D0002168143141E80002002AF3D100BF20200A
:1030E00084F842000020206300BF00BF21680C313B
:1030F00051E8001F21F0100021680C3141E8000266
:10310000002AF3D100BFE06BFEF7F1FC0220606300
:10311000A08DE28D801A81B22046FFF7A2FE01E762
:1031200042E0A08DE18D401A1FFA80F8E08DD0B307
:10313000B8F1000F37D000BF00BF21680C3151E853
:10314000001F21F4907021680C3141E80002002A30
:10315000F3D100BF00BF00BF2168143151E8001F48
:1031600021F001002168143141E80002002AF3D166
:1031700000BF202084F842000020206300BF00BF71
:1031800021680C3151E8001F21F0100021680C313A
:1031900041E80002002AF3D100BF022060634146EB
:1031A0002046FFF75EFEBDE605F0800030B106F078
:1031B000800018B1204601F093FCB3E605F0400012
:1031C00030B106F0400018B1204601F06EFAA9E6D1
:1031D00000BFA7E69D44000810B504460CB90120C5
:1031E00010BDA06900B100E000BF94F8410028B90B
:1031F000002084F84000204600F02AF8242084F8BB
:1032000041002068C06820F400502168C860204652
:1032100001F0ECFA2068006920F490402168086110
:103220002068406920F02A00216848612068C06851
:1032300040F400502168C86000206064202084F8B9
:10324000410084F842000020606300BFC8E700002E
:1032500010B586B00446142101A8FDF76FF8A949FE
:103260002068884256D100BF00200090A648006820
:1032700040F40020A44908600846006800F40020DB
:10328000009000BF00BF00BF002000909E48103893
:10329000006840F001009C49103908600846006849
:1032A00000F00100009000BF00BF03200190022049
:1032B000029000200390032004900820059001A9AB
:1032C0009248FEF75FFE9248924908604FF0006016
:1032D000486040218F4881600021C1604FF48061C7
:1032E0000161002141618161C16101624162FEF7BA
:1032F00089FD08B1FDF7EEFC00BF8648A06384633A
:1033000000BF002205213420FFF712F83420FEF719
:10331000FBFFF4E080492068884258D100BF0020BC
:1033200000907948001D006840F010007649091DA2
:1033300008600846006800F01000009000BF00BF61
:1033400000BF0020009070481038006840F0010075
:103350006D49103908600846006800F001000090CF
:1033600000BF00BF4FF4C060019002200290002017
:103370000390032004900720059001A96348FEF7FD
:1033800001FE6648664908604FF000604860002111
:1033900063488160C1604FF4806101610021416137
:1033A0008161C16101624162FEF72CFD08B1FDF748
:1033B00091FC00BF5A48E063846300BF00220521EE
:1033C0002520FEF7B5FF2520FEF79EFF97E0554923
:1033D0002068884256D100BF002000904A4800680B
:1033E00040F40030484908600846006800F40030A6
:1033F000009000BF00BF00BF00200090424810387E
:10340000006840F001004049103908600846006833
:1034100000F00100009000BF00BF0C2001900220CE
:10342000029001200390032004900720059001A939
:103430003648FEF7A7FD364818303B4908604FF084
:1034400000604860002138488160C1604FF48061AD
:103450000161002141618161C16101624162FEF748
:10346000D1FC08B1FDF736FC00BF2F48E063846350
:1034700000BF002205212620FEF75AFF2620FEF776
:1034800043FF3CE029492068884238D100BF002032
:1034900000901D48006840F480201B4908600846E1
:1034A000006800F48020009000BF00BF00BF002033
:1034B000009015481038006840F002001249103999
:1034C00008600846006800F00200009000BF00BFDE
:1034D0004FF44060019002200290002003900320EE
:1034E00004900720059001A91148FEF74BFD00222A
:1034F00005212720FEF71CFF2720FEF705FF06B059
:1035000010BD0000004C0040403802400000024066
:1035100070600240700200200010014040640240D0
:10352000D00200200044004030030020004800404A
:103530000004024070B504460D46164694F8420059
:1035400020280BD105B10EB9012070BD00202063E9
:1035500032462946204601F05FFAF6E70220F4E7FA
:1035600010B5044606492068884207D10F22054954
:103570000548FFF7DFFF034801F0AAFB10BD00007C
:1035800000440040204D0020E00100207047000072
:10359000F7B50446154694F84100202836D1019825
:1035A00000B10DB90120FEBD01982062A584E5841B
:1035B00000206064212084F841001548A16BC86395
:1035C0001448A16B08641448A16BC8640020A16B67
:1035D000086501AE23681A1D31682B46A06BFEF703
:1035E00087FC6FF040002168086000BF00BF2168C1
:1035F000143151E8001F41F080002168143141E886
:103600000002002AF3D100BF0020CCE70220CAE765
:10361000D945000831460008B1440008704770479A
:1036200000BFFEE7F0EE401AF4EEE01AF1EE10FAF9
:1036300012DBB4EEE11AF1EE10FA02DBB0EE610A31
:103640007047B4EEE01AF1EE10FA02D8B0EE600A5C
:10365000F6E7B0EE410AF3E7B0EE602AF0EE610A59
:10366000F0EE421AB4EEE11AF1EE10FA02DBB0EE1F
:10367000610AE5E7B4EEE01AF1EE10FA02D8B0EE16
:10368000600ADDE7B0EE410ADAE730B589B00546F9
:103690000C460020029004F5A070039000200590D5
:1036A0000690082007909C208DF8000000208DF8DF
:1036B00001008DF802008DF803008DF804008DF8EC
:1036C00005008DF806008DF8070002AB6A4603A9D5
:1036D0002846FDF710FD09B030BD37B58AB0054664
:1036E0000C460020039004F5A07004900020069082
:1036F000079008200890A1208DF8040000208DF884
:1037000005008DF806008DF807009DF830008DF853
:1037100008009DF831008DF8090000208DF80A009E
:103720008DF80B0003AB01AA04A92846FDF7E3FCC2
:103730000DB030BD0A789C2A59D14A7852B28275B0
:103740008A78CB7842EA032212B28282028A4282CB
:103750000A794B7942EA032212B20282028842803D
:103760008A79CB7942EA03220280027F7AB3028807
:103770004388D21A1E4B9A4203DA4268521C4260B6
:1037800009E002884388D21A49F640439A4202DD92
:103790004268521E426090ED020A80ED030A0288E0
:1037A00000EE102AB8EE400ADFED120A60EE200AA1
:1037B0009FED111A80EE810AD0ED010AF8EEE00AC1
:1037C0009FED0C1A00EE810A80ED020A0FE0FFE780
:1037D000028800EE102AB8EE400ADFED060A20EE5D
:1037E000200ADFED050A80EE201A80ED021A7047EC
:1037F000C063FFFF0000B4430000804710B50D48D0
:103800000D4908600320486000210B488160C160B9
:103810004FF4C02101610901416100210176417627
:103820008176C17601774177FDF78EFF08B1FDF70C
:1038300051FA10BD006400400001002010B50E4890
:103840000E4908600320486000210C4881604FF059
:103850008071C1604FF4C021016109014161002103
:10386000017641768176C17601774177FDF76CFF6D
:1038700008B1FDF72FFA10BD0068004028010020B4
:1038800008B500BF002000901A48006840F480008E
:10389000184908600846006800F48000009000BFE6
:1038A00000BF00BF002000900846006840F40010F0
:1038B00008600846006800F40010009000BF00BFD8
:1038C000002205210F20FEF733FD0F20FEF71CFD1F
:1038D000002205211020FEF72BFD1020FEF714FD1D
:1038E000002205213A20FEF723FD3A20FEF70CFDC9
:1038F00008BD00003038024010B5154A00211548B7
:1039000001F00CFC14490860144A0021144801F02D
:1039100005FC14490860144A0021144801F0FEFB1C
:1039200013490860134A0021134801F0F7FB1349BB
:103930000860134A0021134801F0F0FB12490860A7
:10394000124A0021124801F0E9FB1249086010BD3B
:10395000047200086540000800000020287200087A
:10396000B1410008040000204C72000871400008BA
:103970000800002070720008994100080C00002027
:10398000947200082D41000810000020B872000851
:10399000593F00081400002000B587B0142102A888
:1039A000FCF7CCFC00BF002001903648006840F0D6
:1039B0008000344908600846006800F080000190EB
:1039C00000BF00BF00BF002001900846006840F023
:1039D000010008600846006800F00100019000BF87
:1039E00000BF00BF002001900846006840F00200C0
:1039F00008600846006800F00200019000BF00BFA8
:103A000000BF002001900846006840F008000860F0
:103A10000846006800F00800019000BF00BF00BF2A
:103A2000002001900846006840F010000860084639
:103A3000006800F01000019000BF00BF00224FF4AA
:103A400040711148FEF7A6FB002201210F48FEF746
:103A5000A1FB4FF4407002900120039000200490DD
:103A6000059002A90848FEF78DFA01200290039004
:103A700000200490059002A90448FEF783FA07B0DD
:103A800000BD000030380240000402400010024037
:103A900010B50B480B4908604FF4E1304860002135
:103AA00008488160C16001610C2141610021816190
:103AB000C161FFF791FB08B1FDF70CF910BD0000E3
:103AC000004C00405001002010B50E480E4908601F
:103AD0000E48486000210C488160C16001610C21E2
:103AE000416100218161C161FFF776FB08B1FDF7FB
:103AF000F1F805480068C06840F010000249096804
:103B0000C86010BD0010014098010020A08601008F
:103B100010B50B480B4908604FF4E13048600021B4
:103B200008488160C16001610C214161002181610F
:103B3000C161FFF751FB08B1FDF7CCF810BD0000E3
:103B400000440040E001002010B50B480B4908601C
:103B50004FF4E1304860002108488160C160016194
:103B60000C21416100218161C161FFF735FB08B182
:103B7000FDF7B0F810BD000000480040280200200A
:103B800000BFFEE730B504460D46208860806878A7
:103B9000297840EA01202080208A6082E878A9788C
:103BA00040EA012000B220826879297940EA0120A8
:103BB00000B2A082A87940B2A075204600F002F8B9
:103BC00030BD0000017F71B301884288891A11F568
:103BD000805F03DA4168491C416008E0018842883F
:103BE000891AB1F5805F02DD4168491E416090EDA0
:103BF000020A80ED030A018800EE101AB8EE400AAE
:103C0000DFED110A60EE200A9FED101A80EE810AA6
:103C1000D0ED010AF8EEE00A9FED0B1A00EE810AE2
:103C200080ED020A0FE0FFE702884FF4B47302FB55
:103C300003F1CA1701EB1242121400EE102AB8EE7B
:103C4000C00A80ED020A70470000B443000000463D
:103C500040F2062007498861001F07498861401E1D
:103C600006498861C01C06498861401E0549886173
:103C700070470000884D0020084E0020884E00202C
:103C8000084F0020884F002000BFFEE7B0EE401A2A
:103C900010B99FED3C0A704780ED031A90ED040ABD
:103CA00080ED050A31EE600A80ED040A90ED000A0D
:103CB000D0ED041A20EE210A80ED060A90ED070AE5
:103CC000D0ED011A90ED042A01EE820A80ED070A78
:103CD00090ED040AD0ED051A30EE610AD0ED021A1B
:103CE00020EE210A80ED080A90ED070AD0ED091AAE
:103CF000B4EEE10AF1EE10FA04DD90ED090A80ED70
:103D0000070A10E090ED070AD0ED091AF1EE611AEA
:103D1000B4EEE10AF1EE10FA05D290ED090AB1EE27
:103D2000400A80ED070A90ED060AD0ED071A30EE42
:103D3000210AD0ED081A30EE210A80ED0B0A90ED31
:103D40000B0AD0ED0A1AB4EEE10AF1EE10FA04DD26
:103D500090ED0A0A80ED0B0A10E090ED0B0AD0ED11
:103D60000A1AF1EE611AB4EEE10AF1EE10FA05D288
:103D700090ED0A0AB1EE400A80ED0B0A90ED0B0AB5
:103D800089E700000000000000B101B9704791ED23
:103D9000001A80ED001A91ED011A80ED011A91EDE3
:103DA000021A80ED021A80ED090AC0ED0A0A9FEDA1
:103DB000041A80ED051A80ED041A00BFE6E7000042
:103DC0000000000000B970479FED080A80ED050A69
:103DD00080ED040A9FED050A80ED0B0A80ED080ACC
:103DE00080ED070A80ED060A00BFECE70000000046
:103DF00010B500F089F800F075F8104890ED021A3F
:103E0000F0EE410A0E4890ED011AB0EE410A0B485F
:103E10005030FFF73BFF0948B0F9100001EE100ADF
:103E2000B8EEC11AF0EE410A044890ED1F1AB0EE48
:103E3000410A2030FFF72AFF10BD0000884F002004
:103E4000AC50002010B500200B494860084690EDAA
:103E5000020A0A4880ED010A01F15000FFF7B2FFA3
:103E600005482030FFF7AEFF0548FFF7ABFF0548D8
:103E7000FFF7A8FF10BD0000884F0020AC500020C5
:103E8000A84E0020284F002010B500F03DF8134840
:103E900090ED020A124880ED010A104890ED021AD6
:103EA000F0EE410A0E4890ED011AB0EE410A0B48BF
:103EB0005030FFF7EBFE0948B0F9100001EE100A90
:103EC000B8EEC11AF0EE410A044890ED1F1AB0EEA8
:103ED000410A2030FFF7DAFE10BD0000884F0020B5
:103EE000AC500020054890ED020ADFED050A30EEE7
:103EF000200A044880ED010A70470000884F002026
:103F000066664244AC50002010B50F48B0F910006E
:103F100000EE100AB8EEC00AF0EE400A9FED0B0A60
:103F200009482030FFF7B2FE0948B0F9100000EE52
:103F3000100AB8EEC00AF0EE400A9FED060A0448E7
:103F40002030FFF7A3FE10BD884E00200020CBC517
:103F5000084F00200020CB450EB502F00DFF029067
:103F600000BF02213748FFF790FB012102A802F0B1
:103F7000B7F8354890ED490ABDEEC00A10EE100AB8
:103F800002B202212F48FFF7A8FB012102A802F08C
:103F9000A7F82E4890ED130ABDEEC00A10EE100AE5
:103FA00000B22B4991ED130ABDEEC00A10EE101AB3
:103FB00009B2CDE90010244890ED610ABDEEC00AB7
:103FC00010EE100A03B2234890ED130ABDEEC00AAA
:103FD00010EE100A02B24FF400711A48FCF7ADFC63
:103FE000022102A802F07CF81B4890ED043AB0EEE2
:103FF000434A90ED053AF0EE433A184890ED003A06
:10400000F0EE432A104890ED4D3AB0EE432A1348A3
:1040100090ED033AF0EE431A0B4890ED3D3AB0EEC6
:10402000431A0E4890ED013AF0EE430A064890ED2F
:10403000353AB0EE430ADFED0A4A9FED093A00F047
:10404000CFFD8EE700010020C0500020084F002067
:10405000884F0020884E0020304D002088500020DE
:104060000000000000BF012001F002F8FBE70000A3
:1040700008B502F081FE0090FFF7EAFDFCF72EFE86
:104080004FF47A7000F0F4FF00BF2248407A30B15C
:10409000012814D002282CD0032832D115E0FCF7D7
:1040A00021FF00201C4908609FED1C0A1C4880ED80
:1040B000000A9FED1A0A1B4880ED000A24E0FCF775
:1040C00011FF0120144908601EE0FCF7E3FEFCF735
:1040D00053FF032010490860134890ED350A10483B
:1040E00080ED000A104890ED4D0A0E4880ED000A60
:1040F0000AE000F03DFFFCF75BFE02200649086085
:1041000002E0FCF7EFFE00BF00BF0321684601F0AC
:10411000E7FFBAE70A4D0020F4000020000000008D
:10412000EC000020F0000020C050002000BF002361
:104130004FF48062194611484FF0FF301048006874
:10414000C06840F010000E490968C86012220D498D
:104150000B48FFF7EFF90F220B490C48FFF7EAF97C
:104160000B48FCF7BBFB0B48FCF7B8FB002002F048
:1041700021F8012000F07CFFD9E70000FC000020BE
:1041800098010020F84C0020204D0020E001002084
:10419000000100202801002008B502F0EDFD00908C
:1041A00000BFFCF7FFFB0521684601F099FFF8E727
:1041B0008EB002F0E1FD0D903249D1E9002089680E
:1041C000CDE90A200C91DFED300A9FED300A0AA9F3
:1041D0002F48FFF7D9FD2B4A0C3207CA07AB07C39C
:1041E000DFED290A9FED290A07A92A48FFF7CCFD30
:1041F000244A183207CA04AB07C3DFED270A9FED34
:10420000270A04A92648FFF7BFFD1E4A243207CA21
:1042100001AB07C3DFED230A9FED200A01A9204867
:104220003038FFF7B1FD1E48503840684FF4B47184
:10423000484300EE100AB8EEC00A1948503880ED25
:10424000170A4FF47A7000F013FF00BF1648007A87
:1042500001280AD0022802D0032809D102E0FFF782
:10426000F1FD08E0FFF710FE05E0FFF7C1FD02E0F9
:10427000FFF7E8FD00BF00BF04210DA801F030FFEB
:10428000E4E70000FC72000800007A4500007A4470
:10429000A84E0020284F002000803B450000000071
:1042A000D84F00200060EA460A4D002010B54FF0BC
:1042B000E020006902F050FD012801D002F09AF9D7
:1042C00010BD000000B593B0302107A8FCF736F808
:1042D000142102A8FCF732F800BF00200190264804
:1042E000006840F08050244908600846006800F0EB
:1042F0008050019000BF00BF00BF002001901F4808
:10430000006840F440401D4908600846006800F419
:104310004040019000BF00BF0120079000040890BA
:1043200002200D9041050E9106210F91B4211091AC
:10433000022111910421129107A8FEF7F3F908B1A7
:10434000FCF7C8FCFEF746F808B1FCF7C3FC0F20E9
:10435000029002200390002004904FF4A05005909A
:104360004FF480500690052102A8FEF779F808B1B5
:10437000FCF7B0FC13B000BD4038024000700040B4
:104380000348006840F4700001490860704700006D
:1043900088ED00E010B50248FEF79DFC10BD00005E
:1043A0009003002010B502682D4B98420ED0B0F15A
:1043B000804F0BD02B4B984208D02B4B984205D006
:1043C0002A4B984202D02A4B984203D122F0700225
:1043D0004B681A43224B984220D0B0F1804F1DD039
:1043E000204B98421AD0204B984217D01F4B98422E
:1043F00014D01F4B984211D01E4B98420ED01E4B2A
:1044000098420BD01D4B984208D01D4B984205D0C6
:104410001C4B984202D01C4B984203D122F44072AC
:10442000CB681A4322F080034C6943EA040202601D
:104430008B68C3620B688362094B984202D00C4BB5
:10444000984201D10B69036301234361036903F0BF
:1044500001031BB1036923F00103036110BD0000D8
:10446000000001400004004000080040000C004033
:104470000004014000400140004401400048014068
:1044800000180040001C00400020004010B5024809
:10449000FEF72EFD10BD00005001002070B505464E
:1044A000AC6B0020E085E0842046FEF720FD70BD67
:1044B00070B506460025B46B20684069C0F3C0158E
:1044C00094F84100212805D125B10020E084204640
:1044D00000F0FBF820684069C0F3801594F84200B2
:1044E000222805D125B10020E085204600F0A7F85C
:1044F000606C40F0100060642046FEF7F8FC70BD70
:1045000070B50546AC6B2868006800F48070002820
:1045100042D1E08500BF00BF21680C3151E8001F87
:1045200021F4807021680C3141E80002002AF3D1A7
:1045300000BF00BF00BF2168143151E8001F21F007
:1045400001002168143141E80002002AF3D100BFC4
:1045500000BF00BF2168143151E8001F21F0400066
:104560002168143141E80002002AF3D100BF202065
:1045700084F84200206B01280ED100BF00BF2168E3
:104580000C3151E8001F21F0100021680C3141E886
:104590000002002AF3D100BF00206063206B0128D5
:1045A00004D1A18D2046FEF75CFC02E02046FEF718
:1045B000D7FF70BD70B50546AC6B01206063206B02
:1045C000012805D1A08D41082046FEF74AFC02E0F3
:1045D0002046FEF7DBFF70BD70B50546AC6B286862
:1045E000006800F48070F8B90020E08400BF00BFCC
:1045F0002168143151E8001F21F080002168143136
:1046000041E80002002AF3D100BF00BF00BF2168CB
:104610000C3151E8001F41F0400021680C3141E8A5
:104620000002002AF3D102E02046FEF7F7FF70BD3A
:1046300070B50446A56B2846FEF7F1FF70BD00BFBC
:1046400000BF02680C3252E8002F22F49071026819
:104650000C3242E80013002BF3D100BF00BF00BFB3
:104660000268143252E8002F22F00101026814326D
:1046700042E80013002BF3D100BF016B01290ED1DA
:1046800000BF00BF02680C3252E8002F22F0100178
:1046900002680C3242E80013002BF3D100BF202146
:1046A00080F8421000210163704710B5044620686D
:1046B000C06820F040002168C860202084F84100D4
:1046C0002046FEF7ABFF002010BD00BF00BF026810
:1046D0000C3252E8002F22F0C00102680C3242E88E
:1046E0000013002BF3D100BF202180F84110704748
:1046F000F8B5044694F84200222875D1A068B0F5B8
:10470000805F0CD1206950B90025A66A20684068F6
:10471000C0F308003080A06A801CA06215E0A56A82
:104720000026A068B0F5805F03D0A06828B9206992
:1047300018B920684068287004E02068406800F0DC
:104740007F002870A06A401CA062E08D401E80B2ED
:10475000E085002846D12068C06820F0200021684C
:10476000C8602068C06820F480702168C860206834
:10477000406920F0010021684861202084F842004F
:1047800000206063206B012826D10020206300BF39
:1047900000BF21680C3151E8001F21F01000216892
:1047A0000C3141E80002002AF3D100BF2068006804
:1047B00000F0100010280AD100BF002000902068EF
:1047C0000068009020684068009000BF00BFA18D85
:1047D0002046FEF746FB02E02046FEF7C1FE002021
:1047E000F8BD01E00020FBE70220F9E72DE9F84FD2
:1047F00004462068006920F44050E16808432168BD
:1048000008612169A068084361690843E1690843B8
:1048100000902068C06849F20C6188430099084301
:104820002168C8602068406920F44070A16908438D
:104830002168486176492068884203D0754920681C
:10484000884203D1FDF706FF814602E0FDF7F2FE44
:104850008146E069B0F5004F6CD102206168A0FB91
:10486000015003461920A9FB007001462A4638462C
:10487000FBF71AFD6421B0FBF1F04FEA001A0220A9
:104880006168A0FB01510B461920A9FB00712A4663
:104890003846FBF709FD834602206168A0FB015002
:1048A00003461920A9FB00712A463846FBF7FCFC99
:1048B0006421B0FBF1F000EBC00101EB0010ABEBA9
:1048C0008000322101EBC0006421B0FBF1F000F068
:1048D000F8000AEB400A02206168A0FB0150034681
:1048E0001920A9FB007001462A463846FBF7DCFC7C
:1048F000834602206168A0FB015003461920A9FBF2
:1049000000712A463846FBF7CFFC6421B0FBF1F07A
:1049100000EBC00101EB0010ABEB8000322101EB9A
:10492000C0006421B0FBF1F000F0070050442168A2
:1049300088606AE004206168A0FB015003461920EA
:10494000A9FB007001462A463846FBF7ADFC8246BB
:1049500004206168A0FB015003461920A9FB0070E8
:1049600001462A463846FBF79FFC6421B0FBF1F074
:1049700000EBC00101EB0010AAEB8000322101EB3B
:1049800000106421B0FBF1F000F0F00A042061682F
:10499000A0FB017003461920A9FB00513A462846A6
:1049A000FBF782FC6421B0FBF1F00AEB001A042053
:1049B0006168A0FB01510B461920A9FB00712A4632
:1049C0003846FBF771FC834604206168A0FB015068
:1049D00003461920A9FB007001462A463846FBF71A
:1049E00063FC6421B0FBF1F000EBC00101EB0010AF
:1049F000ABEB8000322101EB00106421B0FBF1F041
:104A000000F00F00504421688860BDE8F88F000076
:104A1000001001400014014077B581B004461546EE
:104A20000298A062A58500206064222084F84200DC
:104A30002848E16BC8632848E16B08642748E16BAC
:104A4000C8640020E16B086502AE32682368191D56
:104A50002B46E06BFDF74CFA00BF00200090206869
:104A60000068009020684068009000BF00BF206987
:104A700070B100BF00BF21680C3151E8001F41F444
:104A8000807021680C3141E80002002AF3D100BF98
:104A900000BF00BF2168143151E8001F41F0010040
:104AA0002168143141E80002002AF3D100BF00BFA1
:104AB00000BF2168143151E8001F41F04000216817
:104AC000143141E80002002AF3D100BF002004B0F5
:104AD00070BD000001450008B5450008B14400085C
:104AE000014691F84100212828D18868B0F5805FFF
:104AF0000BD1086948B90A6A1088C0F308000B682E
:104B00005860086A801C086205E00B6A581C08623D
:104B100018780B685860C88C401E80B2C88458B999
:104B20000868C06820F080000B68D8600868C0681A
:104B300040F040000B68D860002070470220FCE77E
:104B400010B5064800680068C0F3001028B103489B
:104B5000FEF7CEF9014800F013F810BD98010020CF
:104B600010B50248FEF7C4F910BD0000E0010020B6
:104B700010B50248FEF7BCF910BD00002802002065
:104B800038B504461049206888421CD10F48FEF70A
:104B900069F900200E4908800E48FBF715FF002038
:104BA0000D49C87200BF0090084800680068009076
:104BB000064800684068009000BF00BF1222054907
:104BC0000248FEF7B7FC38BD0010014098010020F4
:104BD000C4000020F84C0020E44C002000BFFEE799
:104BE00010B52DED0A8BB0EE408AF0EE608AB0EE83
:104BF000419AF0EE619AB0EE42AAF0EE62AAB0EEEF
:104C000043BAF0EE63BAB0EE44CAF0EE64CA0024D0
:104C10002146641C2C4800EB810080ED008A21466F
:104C2000641C294800EB8100C0ED008A2146641C09
:104C3000254800EB810080ED009A2146641C224843
:104C400000EB8100C0ED009A2146641C1E4800EB79
:104C5000810080ED00AA2146641C1B4800EB810006
:104C6000C0ED00AA2146641C174800EB810080EDCE
:104C700000BA2046611CCCB2134901EB8000C0EDA4
:104C800000BA2046611CCCB20F4901EB800080EDD8
:104C900000CA2046611CCCB20B4901EB8000C0ED7C
:104CA00000CA002081F8280081F82900802081F8BE
:104CB0002A007F2081F82B002C220448FEF768FC94
:104CC000BDEC0A8B10BD00005C4D0020500100209F
:104CD00010B52DED0A8B82B0044600207949087486
:104CE00079480078CD287CD17748807BDC28FAD1C0
:104CF000764890ED040A80ED020A90ED050A80EDF9
:104D0000030A60788DF80400A0788DF80500E0783B
:104D10008DF8060020798DF807009DED010A6B489B
:104D200080ED050A60798DF80400A0798DF8050002
:104D3000E0798DF80600207A8DF807009DED010AD4
:104D4000624880ED040A607A604908760846007E71
:104D500001287DD100205E4908605E480068FBF7AD
:104D600011FC41EC1C0B9FED5C0B53EC102BFBF783
:104D700097FB41EC1A0B554890ED050A10EE101AFE
:104D80000846FBF7FFFB41EC1C0B9FED550B53EC6A
:104D9000102BFBF785FB41EC1B0B53EC1A2BFBF79D
:104DA000D8FA41EC190BFBF700FC08EE100A494851
:104DB00080ED008A4C480068FBF7E4FB41EC1C0BDB
:104DC0009FED450B53EC102BFBF76AFB41EC1A0BE4
:104DD0003E4890ED040A10EE101A0846FBF7D2FB8D
:104DE00000E06BE041EC1C0B9FED3D0B53EC102BF6
:104DF000FBF756FB41EC1B0B53EC1A2BFBF7A9FA04
:104E000041EC190BFBF7D1FB08EE900A3648C0EDD8
:104E1000008A3648407A032845D12C48D0ED040A50
:104E20003348B0F9000000EE100AB8EEC00A30EEC8
:104E3000800AF2EE0C0A20EE200ADFED2E0A80EE48
:104E4000201A2D4880ED001A2048D0ED050A00E018
:104E500033E02A48B0F9000000EE100AB8EEC00AAC
:104E600030EE800AF2EE060A20EE200ADFED240A78
:104E700080EE201A234880ED001A234890ED010AA5
:104E80002048D0ED000A30EE200A204880ED350A97
:104E90001D4890ED000A1848D0ED000A30EE600A77
:104EA0001A4880ED4D0A9FED1A0A084880ED050A60
:104EB0009FED170A80ED040A00BF00BF02B0BDECF1
:104EC0000A8B10BDE44C0020204D0020304D002006
:104ED000D4000020CC0000209A9999999999E93F33
:104EE0009A9999999999C93FD00000200A4D0020BC
:104EF000D800002000002044DC000020DA00002060
:104F000000000044E000002088500020C050002035
:104F10000000000002480068C0F302207047000053
:104F20000CED00E010B5002804DB0A07130E054A5B
:104F3000135406E00A07140E034A00F00F031B1F68
:104F4000D45410BD00E400E018ED00E0EFF305805C
:104F5000704702E008C8121F08C1002AFAD1704742
:104F60007047002001E001C1121F002AFBD17047E9
:104F700010B52DED088B2848B0F9060000EE100A98
:104F8000B8EEC00A10EE101A0846FBF7FBFA41EC27
:104F90001B0B9FED220B53EC102BFBF781FA41EC1E
:104FA000190B20480068FBF7EDFA41EC1A0B53ECA3
:104FB000192BFBF7CEF941EC180BFBF7F6FA1A495F
:104FC000C1F8D4001448B0F9040000EE100AB8EE9D
:104FD000C00A10EE101A0846FBF7D4FA41EC1B0B7E
:104FE0009FED120B53EC102BFBF75AFA41EC190B07
:104FF00010480068FBF7C6FA41EC1A0B53EC192B6A
:10500000FBF748FA41EC180BFBF7CFFA0649C1F859
:105010003401BDEC088B10BD0A4D00209CC420B0AB
:105020007268A13FEC000020C0500020910F7A363A
:10503000AB3EA73FF0000020FDF7C4F8FFF742F9B0
:10504000FEF7AAFCFEF71CFCFEF73EFDFEF7D6FBC2
:10505000FEF7F4FBFEF75CFDFEF776FDFEF718FDAC
:1050600000F016F8FEF748FC00F028F800BFFEE755
:1050700070B50546FFF76AFF10B16FF0050404E054
:10508000002415B1284600F0FDFF204670BD000049
:1050900010B5FFF75BFF10B16FF0050409E006489B
:1050A000006820B9012004490860002401E04FF0A5
:1050B000FF34204610BD00008400002070B5FFF7CB
:1050C00045FF10B16FF005041FE01148006801288A
:1050D00019D100BF801F0021002804DB0A07130E2E
:1050E0000C4A135406E00A07150E0B4A00F00F0392
:1050F0001B1FD55400BF00BF02200549086001F006
:105100000BF9002401E04FF0FF34204670BD000091
:105110008400002000E400E018ED00E02DE9FF47E6
:1051200080468946144600200390FFF70FFF0028B1
:105130004ED1B8F1000F4BD0802618258246471E6D
:1051400044B3206808B1D4F800A0A06900B1A569F3
:105150002DB1382D03D8207900F0010018B10020BE
:1051600004B0BDE8F087606908B160698608A0688E
:1051700040B1E0685C2805D3206918B1606908B1C6
:10518000012708E0A06830B9E06820B9206910B9AB
:10519000002700E00027012F0CD12169A0684B46B1
:1051A0003246CDE9005102905146404601F076FD6D
:1051B00003900DE067B903A8B2B24B465146CDE962
:1051C0000050404601F038FD012801D00020039036
:1051D0000398C5E72DE9F04105460E4616480768D5
:1051E00016480068001D00F0C3FD681C38B936B1D0
:1051F00012480168091D124800F011FE1AE07C19DE
:105200000E4800684460BC4207D20C480168091D82
:105210000C48006800F0E9FD0CE008480168091D31
:105220000948006800F0E1FD08480068844201D2A6
:1052300006480460BDE8F0814800002034000020EA
:10524000C80800203C000020380000206400002036
:1052500010B5044600F0F0FD24480068401C2349C6
:1052600008602348006840B9214804600846006887
:1052700001280DD100F0FCF90AE01E48006838B999
:105280001B480068C06AE16A884201D81848046077
:1052900019480068401C18490860084600686064A6
:1052A0001649E06A0968884202D91449E06A086030
:1052B000E16A01EB8101124A02EB8100211D00F03D
:1052C000AEFD00F0E3FD0B48006868B108480068D7
:1052D000C06AE16A884207D24FF0805009490860ED
:1052E000BFF34F8FBFF36F8F10BD0000440000204D
:1052F0003400002050000020600000204C000020FE
:105300001804002004ED00E008B500F095FD1248F7
:105310000068E8B9114800F058FD114800F055FD4B
:105320000E48104908600E480F49086000200F4BD6
:105330000F4A102100900A2001F076F90649086012
:105340000846006820B10BA10348006800F05EFE2B
:1053500000F09CFD08BD000078000020DC08002063
:10536000F0080020700000207400002004090020D4
:1053700054090020546D72510000000010B516E071
:1053800000F05AFD0C48C068C468201D00F0F0FC15
:105390000A480068401E0949086009480068401E24
:1053A0000749086000F072FD204600F05FF80448ED
:1053B00000680028E4D110BDB4080020440000209B
:1053C0004000002070B504460D46206C70B1216C81
:1053D000E0680144E160D4E90210884201D3216809
:1053E000E1602846226CE168FAF78FFF70BD2DE975
:1053F000F04104460F4615464FF00008A66B206C9E
:1054000048B9206800282CD1A06801F05DFD8046D5
:105410000020A06025E07DB93946226C6068FAF76B
:1054200074FF216C606808446060D4E9010188421F
:1054300017D32068606014E03946226CE068FAF700
:1054400064FF216CE068411AE1602168E0688842ED
:1054500003D2216CA068411AE160022D01D106B18E
:10546000761E701CA0634046BDE8F08110B504466E
:1054700094F8590030B9206B00F026FD204600F06A
:1054800023FD1AE094F85900012803D1204600F0CA
:105490001BFD12E094F85900022801D1012000E020
:1054A000002050B900BF502080F31188BFF34F8F08
:1054B000BFF36F8F00BF00BFFEE710BD0146084A73
:1054C000126812680AB9012200E000220A600A6824
:1054D00022B9034A1268D268106800E000207047C1
:1054E0007000002030B54FF47053174800F00704E7
:1054F0002CB1C01D20F00700134C041B1B1B0246DF
:10550000124C22600024114D6C60D018083820F035
:1055100007000F4C206000240D4D2D686C600C4D71
:105520002D682C601146441A4C60094C24680C60AC
:10553000084D4C682C60084D4C682C604FF00044BE
:10554000064D2C6030BD0000AC100020880000200B
:10555000900000209800002094000020A40000206B
:1055600000BFFFF70BFF064800680128F9D94FF08C
:10557000805004490860BFF34F8FBFF36F8FF0E78F
:105580001804002004ED00E02DE9F04106460D4628
:1055900017469846069C0DB9246000E02760E66334
:1055A00025640121204601F0AFF884F84C80BDE865
:1055B000F0812DE9F05F82460E4690469B460A9F99
:1055C0000C9C4FEA8801A522206BFAF7B0FEA8F1E7
:1055D0000100216B01EB800929F0070909F00700A0
:1055E00008B9012000E0002050B900BF502080F32E
:1055F0001188BFF34F8FBFF36F8F00BF00BFFEE76F
:1056000086B1002507E0715D04F134004155705DFD
:1056100000B902E06D1C102DF5D300BF002143201E
:10562000015502E0002084F83400382F00D33727DA
:10563000E762E76400202065201D00F0D3FB04F141
:10564000180000F0CFFB2461C7F13800A06164624C
:105650000020606584F858005A465146484600F0DC
:1056600071FB20600B9808B10B980460BDE8F09FB7
:1056700010B5002407E004EB84010F4A02EB81001F
:1056800000F0A3FB641C382CF5D30C4800F09DFB04
:105690000B4800F09AFB0B4800F097FB0A4800F01B
:1056A00094FB0A4800F091FB04480949086004484B
:1056B0000849086010BD0000180400207808002088
:1056C0008C080020A0080020B4080020C808002092
:1056D000380000203C00002010B50146164800E0CC
:1056E000006803688B42FBD30246436813448B4235
:1056F00004D143684C682344436001460A464B6822
:1057000013440468A34211D10C4C03682468A342DB
:1057100008D04B680468646823444B6003681B68C6
:105720000B6005E0054B1B680B6001E003680B6034
:10573000884200D0016010BD880000209000002049
:105740002DE9F04104460D4616461F464FF000086D
:1057500065602461B5420CD8F01BA169884202D370
:105760004FF0010811E0211D0948006800F03DFBE1
:105770000BE0BE4204D2BD4202D34FF0010804E068
:10578000211D0448006800F030FB4046BDE8F08170
:10579000740000207000002070B5054600F04CFB3E
:1057A000A86B08B9012400E0002400F06FFB20463C
:1057B00070BD70B5054600F03FFBA86BE96B8842F1
:1057C00001D1012400E0002400F060FB204670BD00
:1057D000F8B505460F461A480068C068C468201D21
:1057E00000F0C6FA94F8280000F00400E8B1A069BF
:1057F00041192B463A462046FFF7A2FFD8B10020B8
:1058000003462A4601460090204601F0B9FC0646B0
:1058100056B900BF502080F31188BFF34F8FBFF3FC
:105820006F8F00BF00BFFEE705E094F8280020F06E
:10583000010084F828002046216A8847F8BD00004E
:1058400070000020F0B587B0A0E00398002811DABE
:1058500004AE56B900BF502080F31188BFF34F8FBC
:10586000BFF36F8F00BF00BFFEE7D6E90020B1682D
:10587000904700BF03980028E6DB059C606908B9E3
:10588000012000E0002010B9201D00F071FA02A8EC
:1058900000F0DEF8054603980A2875D2DFE800F02C
:1058A00009050739416306083A4200BF00BF00BF3F
:1058B00000BF94F8280040F0010084F82800049804
:1058C000A269811803462A462046FFF739FFF8B13E
:1058D0002046216A884794F8280000F00400B8B1F7
:1058E000002000900498A169421800231946204620
:1058F00001F046FC074657B900BF502080F31188DD
:10590000BFF34F8FBFF36F8F00BF00BFFEE700BF35
:105910003BE000BF94F8280020F0010084F8280044
:1059200033E000BF94F8280040F0010084F828001C
:105930000498A061A06908B1012000E0002050B9DE
:1059400000BF502080F31188BFF34F8FBFF36F8FDC
:1059500000BF00BFFEE7A06941192B462A4620463A
:10596000FFF7EEFE11E094F8280000F0020018B9ED
:10597000204600F0A9FA05E094F8280020F0010084
:1059800084F8280001E0FFE700BF00BF002203A960
:105990000448006801F056F800287FF456AF07B0BD
:1059A000F0BD000078000020F8B505460C4600F078
:1059B0000FFD684600F04CF80646009820BB44B93D
:1059C000B54206D801F01EFB31462846FFF700FF1E
:1059D0001CE03CB10E480068006808B9012000E0F6
:1059E00000200446A91B22460A48006800F024FB58
:1059F00001F008FB50B94FF0805007490860BFF331
:105A00004F8FBFF36F8F01E001F0FCFAF8BD00008B
:105A1000740000207800002004ED00E00A490968C5
:105A2000096809B9012100E0002121B14FF0FF31DF
:105A3000064A116006E004490968C968C868034A53
:105A400041681160704700003800002064000020A9
:105A500070B5044601F090F9054607480068854294
:105A600004D200F00BF80120206001E0002020604B
:105A700001480560284670BD800000202DE9F843EC
:105A800034E025480068C068056823480068C0689D
:105A9000C468201D00F06CF92046216A884794F8FC
:105AA000280000F0040008B3A0694619AE4207D9E7
:105AB00066602461211D1848006800F096F915E021
:105AC000002003462A4601460090204601F058FB7C
:105AD000074657B900BF502080F31188BFF34F8F9E
